{
  "contractName": "FunkyCrocs",
  "abi": [
    {
      "inputs": [],
      "stateMutability": "nonpayable",
      "type": "constructor"
    },
    {
      "anonymous": false,
      "inputs": [
        {
          "indexed": true,
          "internalType": "address",
          "name": "owner",
          "type": "address"
        },
        {
          "indexed": true,
          "internalType": "address",
          "name": "approved",
          "type": "address"
        },
        {
          "indexed": true,
          "internalType": "uint256",
          "name": "tokenId",
          "type": "uint256"
        }
      ],
      "name": "Approval",
      "type": "event"
    },
    {
      "anonymous": false,
      "inputs": [
        {
          "indexed": true,
          "internalType": "address",
          "name": "owner",
          "type": "address"
        },
        {
          "indexed": true,
          "internalType": "address",
          "name": "operator",
          "type": "address"
        },
        {
          "indexed": false,
          "internalType": "bool",
          "name": "approved",
          "type": "bool"
        }
      ],
      "name": "ApprovalForAll",
      "type": "event"
    },
    {
      "anonymous": false,
      "inputs": [
        {
          "indexed": true,
          "internalType": "address",
          "name": "previousOwner",
          "type": "address"
        },
        {
          "indexed": true,
          "internalType": "address",
          "name": "newOwner",
          "type": "address"
        }
      ],
      "name": "OwnershipTransferred",
      "type": "event"
    },
    {
      "anonymous": false,
      "inputs": [
        {
          "indexed": true,
          "internalType": "address",
          "name": "from",
          "type": "address"
        },
        {
          "indexed": true,
          "internalType": "address",
          "name": "to",
          "type": "address"
        },
        {
          "indexed": true,
          "internalType": "uint256",
          "name": "tokenId",
          "type": "uint256"
        }
      ],
      "name": "Transfer",
      "type": "event"
    },
    {
      "inputs": [],
      "name": "MAX_MINT_PER_TX",
      "outputs": [
        {
          "internalType": "uint256",
          "name": "",
          "type": "uint256"
        }
      ],
      "stateMutability": "view",
      "type": "function",
      "constant": true
    },
    {
      "inputs": [],
      "name": "MAX_PRESALE_SUPPLY",
      "outputs": [
        {
          "internalType": "uint256",
          "name": "",
          "type": "uint256"
        }
      ],
      "stateMutability": "view",
      "type": "function",
      "constant": true
    },
    {
      "inputs": [],
      "name": "MAX_SUPPLY",
      "outputs": [
        {
          "internalType": "uint256",
          "name": "",
          "type": "uint256"
        }
      ],
      "stateMutability": "view",
      "type": "function",
      "constant": true
    },
    {
      "inputs": [],
      "name": "a1",
      "outputs": [
        {
          "internalType": "address",
          "name": "",
          "type": "address"
        }
      ],
      "stateMutability": "view",
      "type": "function",
      "constant": true
    },
    {
      "inputs": [],
      "name": "a2",
      "outputs": [
        {
          "internalType": "address",
          "name": "",
          "type": "address"
        }
      ],
      "stateMutability": "view",
      "type": "function",
      "constant": true
    },
    {
      "inputs": [],
      "name": "a3",
      "outputs": [
        {
          "internalType": "address",
          "name": "",
          "type": "address"
        }
      ],
      "stateMutability": "view",
      "type": "function",
      "constant": true
    },
    {
      "inputs": [
        {
          "internalType": "address",
          "name": "to",
          "type": "address"
        },
        {
          "internalType": "uint256",
          "name": "tokenId",
          "type": "uint256"
        }
      ],
      "name": "approve",
      "outputs": [],
      "stateMutability": "nonpayable",
      "type": "function"
    },
    {
      "inputs": [
        {
          "internalType": "address",
          "name": "owner",
          "type": "address"
        }
      ],
      "name": "balanceOf",
      "outputs": [
        {
          "internalType": "uint256",
          "name": "",
          "type": "uint256"
        }
      ],
      "stateMutability": "view",
      "type": "function",
      "constant": true
    },
    {
      "inputs": [],
      "name": "baseTokenURI",
      "outputs": [
        {
          "internalType": "string",
          "name": "",
          "type": "string"
        }
      ],
      "stateMutability": "view",
      "type": "function",
      "constant": true
    },
    {
      "inputs": [
        {
          "internalType": "uint256",
          "name": "tokenId",
          "type": "uint256"
        }
      ],
      "name": "getApproved",
      "outputs": [
        {
          "internalType": "address",
          "name": "",
          "type": "address"
        }
      ],
      "stateMutability": "view",
      "type": "function",
      "constant": true
    },
    {
      "inputs": [],
      "name": "initial_price",
      "outputs": [
        {
          "internalType": "uint256",
          "name": "",
          "type": "uint256"
        }
      ],
      "stateMutability": "view",
      "type": "function",
      "constant": true
    },
    {
      "inputs": [
        {
          "internalType": "address",
          "name": "owner",
          "type": "address"
        },
        {
          "internalType": "address",
          "name": "operator",
          "type": "address"
        }
      ],
      "name": "isApprovedForAll",
      "outputs": [
        {
          "internalType": "bool",
          "name": "",
          "type": "bool"
        }
      ],
      "stateMutability": "view",
      "type": "function",
      "constant": true
    },
    {
      "inputs": [],
      "name": "name",
      "outputs": [
        {
          "internalType": "string",
          "name": "",
          "type": "string"
        }
      ],
      "stateMutability": "view",
      "type": "function",
      "constant": true
    },
    {
      "inputs": [],
      "name": "owner",
      "outputs": [
        {
          "internalType": "address",
          "name": "",
          "type": "address"
        }
      ],
      "stateMutability": "view",
      "type": "function",
      "constant": true
    },
    {
      "inputs": [
        {
          "internalType": "uint256",
          "name": "tokenId",
          "type": "uint256"
        }
      ],
      "name": "ownerOf",
      "outputs": [
        {
          "internalType": "address",
          "name": "",
          "type": "address"
        }
      ],
      "stateMutability": "view",
      "type": "function",
      "constant": true
    },
    {
      "inputs": [],
      "name": "presaleActive",
      "outputs": [
        {
          "internalType": "bool",
          "name": "",
          "type": "bool"
        }
      ],
      "stateMutability": "view",
      "type": "function",
      "constant": true
    },
    {
      "inputs": [],
      "name": "price",
      "outputs": [
        {
          "internalType": "uint256",
          "name": "",
          "type": "uint256"
        }
      ],
      "stateMutability": "view",
      "type": "function",
      "constant": true
    },
    {
      "inputs": [],
      "name": "renounceOwnership",
      "outputs": [],
      "stateMutability": "nonpayable",
      "type": "function"
    },
    {
      "inputs": [],
      "name": "reserved",
      "outputs": [
        {
          "internalType": "uint256",
          "name": "",
          "type": "uint256"
        }
      ],
      "stateMutability": "view",
      "type": "function",
      "constant": true
    },
    {
      "inputs": [
        {
          "internalType": "address",
          "name": "from",
          "type": "address"
        },
        {
          "internalType": "address",
          "name": "to",
          "type": "address"
        },
        {
          "internalType": "uint256",
          "name": "tokenId",
          "type": "uint256"
        }
      ],
      "name": "safeTransferFrom",
      "outputs": [],
      "stateMutability": "nonpayable",
      "type": "function"
    },
    {
      "inputs": [
        {
          "internalType": "address",
          "name": "from",
          "type": "address"
        },
        {
          "internalType": "address",
          "name": "to",
          "type": "address"
        },
        {
          "internalType": "uint256",
          "name": "tokenId",
          "type": "uint256"
        },
        {
          "internalType": "bytes",
          "name": "_data",
          "type": "bytes"
        }
      ],
      "name": "safeTransferFrom",
      "outputs": [],
      "stateMutability": "nonpayable",
      "type": "function"
    },
    {
      "inputs": [],
      "name": "saleActive",
      "outputs": [
        {
          "internalType": "bool",
          "name": "",
          "type": "bool"
        }
      ],
      "stateMutability": "view",
      "type": "function",
      "constant": true
    },
    {
      "inputs": [
        {
          "internalType": "address",
          "name": "operator",
          "type": "address"
        },
        {
          "internalType": "bool",
          "name": "approved",
          "type": "bool"
        }
      ],
      "name": "setApprovalForAll",
      "outputs": [],
      "stateMutability": "nonpayable",
      "type": "function"
    },
    {
      "inputs": [
        {
          "internalType": "bytes4",
          "name": "interfaceId",
          "type": "bytes4"
        }
      ],
      "name": "supportsInterface",
      "outputs": [
        {
          "internalType": "bool",
          "name": "",
          "type": "bool"
        }
      ],
      "stateMutability": "view",
      "type": "function",
      "constant": true
    },
    {
      "inputs": [],
      "name": "symbol",
      "outputs": [
        {
          "internalType": "string",
          "name": "",
          "type": "string"
        }
      ],
      "stateMutability": "view",
      "type": "function",
      "constant": true
    },
    {
      "inputs": [
        {
          "internalType": "uint256",
          "name": "index",
          "type": "uint256"
        }
      ],
      "name": "tokenByIndex",
      "outputs": [
        {
          "internalType": "uint256",
          "name": "",
          "type": "uint256"
        }
      ],
      "stateMutability": "view",
      "type": "function",
      "constant": true
    },
    {
      "inputs": [
        {
          "internalType": "address",
          "name": "owner",
          "type": "address"
        },
        {
          "internalType": "uint256",
          "name": "index",
          "type": "uint256"
        }
      ],
      "name": "tokenOfOwnerByIndex",
      "outputs": [
        {
          "internalType": "uint256",
          "name": "",
          "type": "uint256"
        }
      ],
      "stateMutability": "view",
      "type": "function",
      "constant": true
    },
    {
      "inputs": [
        {
          "internalType": "uint256",
          "name": "tokenId",
          "type": "uint256"
        }
      ],
      "name": "tokenURI",
      "outputs": [
        {
          "internalType": "string",
          "name": "",
          "type": "string"
        }
      ],
      "stateMutability": "view",
      "type": "function",
      "constant": true
    },
    {
      "inputs": [],
      "name": "totalSupply",
      "outputs": [
        {
          "internalType": "uint256",
          "name": "",
          "type": "uint256"
        }
      ],
      "stateMutability": "view",
      "type": "function",
      "constant": true
    },
    {
      "inputs": [
        {
          "internalType": "address",
          "name": "from",
          "type": "address"
        },
        {
          "internalType": "address",
          "name": "to",
          "type": "address"
        },
        {
          "internalType": "uint256",
          "name": "tokenId",
          "type": "uint256"
        }
      ],
      "name": "transferFrom",
      "outputs": [],
      "stateMutability": "nonpayable",
      "type": "function"
    },
    {
      "inputs": [
        {
          "internalType": "address",
          "name": "newOwner",
          "type": "address"
        }
      ],
      "name": "transferOwnership",
      "outputs": [],
      "stateMutability": "nonpayable",
      "type": "function"
    },
    {
      "inputs": [],
      "name": "whitelistActive",
      "outputs": [
        {
          "internalType": "bool",
          "name": "",
          "type": "bool"
        }
      ],
      "stateMutability": "view",
      "type": "function",
      "constant": true
    },
    {
      "inputs": [
        {
          "internalType": "address",
          "name": "",
          "type": "address"
        }
      ],
      "name": "whitelistReserved",
      "outputs": [
        {
          "internalType": "uint256",
          "name": "",
          "type": "uint256"
        }
      ],
      "stateMutability": "view",
      "type": "function",
      "constant": true
    },
    {
      "inputs": [
        {
          "internalType": "address",
          "name": "addr",
          "type": "address"
        }
      ],
      "name": "tokensOfOwner",
      "outputs": [
        {
          "internalType": "uint256[]",
          "name": "",
          "type": "uint256[]"
        }
      ],
      "stateMutability": "view",
      "type": "function",
      "constant": true
    },
    {
      "inputs": [
        {
          "internalType": "uint256",
          "name": "_amount",
          "type": "uint256"
        }
      ],
      "name": "mintWhitelist",
      "outputs": [],
      "stateMutability": "payable",
      "type": "function",
      "payable": true
    },
    {
      "inputs": [
        {
          "internalType": "uint256",
          "name": "_amount",
          "type": "uint256"
        }
      ],
      "name": "mintPresale",
      "outputs": [],
      "stateMutability": "payable",
      "type": "function",
      "payable": true
    },
    {
      "inputs": [
        {
          "internalType": "uint256",
          "name": "_amount",
          "type": "uint256"
        }
      ],
      "name": "mintToken",
      "outputs": [],
      "stateMutability": "payable",
      "type": "function",
      "payable": true
    },
    {
      "inputs": [
        {
          "internalType": "uint256",
          "name": "_amount",
          "type": "uint256"
        }
      ],
      "name": "mintReserved",
      "outputs": [],
      "stateMutability": "nonpayable",
      "type": "function"
    },
    {
      "inputs": [
        {
          "internalType": "address[]",
          "name": "_a",
          "type": "address[]"
        },
        {
          "internalType": "uint256[]",
          "name": "_amount",
          "type": "uint256[]"
        }
      ],
      "name": "editWhitelistReserved",
      "outputs": [],
      "stateMutability": "nonpayable",
      "type": "function"
    },
    {
      "inputs": [
        {
          "internalType": "bool",
          "name": "val",
          "type": "bool"
        }
      ],
      "name": "setWhitelistActive",
      "outputs": [],
      "stateMutability": "nonpayable",
      "type": "function"
    },
    {
      "inputs": [
        {
          "internalType": "bool",
          "name": "val",
          "type": "bool"
        }
      ],
      "name": "setPresaleActive",
      "outputs": [],
      "stateMutability": "nonpayable",
      "type": "function"
    },
    {
      "inputs": [
        {
          "internalType": "bool",
          "name": "val",
          "type": "bool"
        }
      ],
      "name": "setSaleActive",
      "outputs": [],
      "stateMutability": "nonpayable",
      "type": "function"
    },
    {
      "inputs": [
        {
          "internalType": "string",
          "name": "baseURI",
          "type": "string"
        }
      ],
      "name": "setBaseURI",
      "outputs": [],
      "stateMutability": "nonpayable",
      "type": "function"
    },
    {
      "inputs": [
        {
          "internalType": "uint256",
          "name": "newPrice",
          "type": "uint256"
        }
      ],
      "name": "setPrice",
      "outputs": [],
      "stateMutability": "nonpayable",
      "type": "function"
    },
    {
      "inputs": [
        {
          "internalType": "address[]",
          "name": "_a",
          "type": "address[]"
        }
      ],
      "name": "setAddresses",
      "outputs": [],
      "stateMutability": "nonpayable",
      "type": "function"
    },
    {
      "inputs": [
        {
          "internalType": "uint256",
          "name": "amount",
          "type": "uint256"
        }
      ],
      "name": "withdrawTeam",
      "outputs": [],
      "stateMutability": "payable",
      "type": "function",
      "payable": true
    }
  ],
  "bytecode": "0x60806040526000600a60146101000a81548160ff0219169083151502179055506000600a60156101000a81548160ff0219169083151502179055506000600a60166101000a81548160ff0219169083151502179055506096600b55668e1bc9bf040000600c556040518060400160405280601481526020017f687474703a2f2f34352e35352e33352e3134332f000000000000000000000000815250600e9080519060200190620000b29291906200025e565b50348015620000c057600080fd5b506040518060400160405280600b81526020017f46756e6b792043726f63730000000000000000000000000000000000000000008152506040518060400160405280600381526020017f464e4b00000000000000000000000000000000000000000000000000000000008152508160009080519060200190620001459291906200025e565b5080600190805190602001906200015e9291906200025e565b50505062000181620001756200019060201b60201c565b6200019860201b60201c565b600c54600d8190555062000373565b600033905090565b6000600a60009054906101000a900473ffffffffffffffffffffffffffffffffffffffff16905081600a60006101000a81548173ffffffffffffffffffffffffffffffffffffffff021916908373ffffffffffffffffffffffffffffffffffffffff1602179055508173ffffffffffffffffffffffffffffffffffffffff168173ffffffffffffffffffffffffffffffffffffffff167f8be0079c531659141344cd1fd0a4f28419497f9722a3daafe3b4186f6b6457e060405160405180910390a35050565b8280546200026c906200033d565b90600052602060002090601f016020900481019282620002905760008555620002dc565b82601f10620002ab57805160ff1916838001178555620002dc565b82800160010185558215620002dc579182015b82811115620002db578251825591602001919060010190620002be565b5b509050620002eb9190620002ef565b5090565b5b808211156200030a576000816000905550600101620002f0565b5090565b7f4e487b7100000000000000000000000000000000000000000000000000000000600052602260045260246000fd5b600060028204905060018216806200035657607f821691505b602082108114156200036d576200036c6200030e565b5b50919050565b61534380620003836000396000f3fe60806040526004361061027d5760003560e01c80638462151c1161014f578063b88d4fde116100c1578063e985e9c51161007a578063e985e9c514610992578063f14c0bcc146109cf578063f2fde38b146109f8578063f759867a14610a21578063fd2b049214610a3d578063fe60d12c14610a595761027d565b8063b88d4fde14610893578063b9571721146108bc578063c3b754dc146108e5578063c634d0321461090e578063c87b56dd1461092a578063d547cfb7146109675761027d565b806395d89b411161011357806395d89b4114610795578063969e9d0c146107c05780639a5d140b146107eb578063a035b1fe14610814578063a22cb4651461083f578063ab3f5a1a146108685761027d565b80638462151c146106ae5780638da5cb5b146106eb5780638ecad7211461071657806391b7f5ed146107415780639426eef81461076a5761027d565b806342842e0e116101f357806368428a1b116101ac57806368428a1b1461059e5780636b8dc355146105c957806370a08231146105f4578063715018a61461063157806372e3a3eb14610648578063841718a6146106855761027d565b806342842e0e1461048b5780634618163e146104b45780634f6ccce7146104d057806353135ca01461050d57806355f804b3146105385780636352211e146105615761027d565b8063119552a111610245578063119552a11461037b57806318160ddd146103a657806323b872dd146103d15780632f745c59146103fa57806332cb6b0c146104375780633f8121a2146104625761027d565b806301ffc9a71461028257806302ce5813146102bf57806306fdde03146102ea578063081812fc14610315578063095ea7b314610352575b600080fd5b34801561028e57600080fd5b506102a960048036038101906102a49190613774565b610a84565b6040516102b691906137bc565b60405180910390f35b3480156102cb57600080fd5b506102d4610afe565b6040516102e191906137bc565b60405180910390f35b3480156102f657600080fd5b506102ff610b11565b60405161030c9190613870565b60405180910390f35b34801561032157600080fd5b5061033c600480360381019061033791906138c8565b610ba3565b6040516103499190613936565b60405180910390f35b34801561035e57600080fd5b506103796004803603810190610374919061397d565b610c28565b005b34801561038757600080fd5b50610390610d40565b60405161039d9190613936565b60405180910390f35b3480156103b257600080fd5b506103bb610d66565b6040516103c891906139cc565b60405180910390f35b3480156103dd57600080fd5b506103f860048036038101906103f391906139e7565b610d73565b005b34801561040657600080fd5b50610421600480360381019061041c919061397d565b610dd3565b60405161042e91906139cc565b60405180910390f35b34801561044357600080fd5b5061044c610e78565b60405161045991906139cc565b60405180910390f35b34801561046e57600080fd5b5061048960048036038101906104849190613a66565b610e7e565b005b34801561049757600080fd5b506104b260048036038101906104ad91906139e7565b610f17565b005b6104ce60048036038101906104c991906138c8565b610f37565b005b3480156104dc57600080fd5b506104f760048036038101906104f291906138c8565b611183565b60405161050491906139cc565b60405180910390f35b34801561051957600080fd5b506105226111f4565b60405161052f91906137bc565b60405180910390f35b34801561054457600080fd5b5061055f600480360381019061055a9190613bc8565b611207565b005b34801561056d57600080fd5b50610588600480360381019061058391906138c8565b61129d565b6040516105959190613936565b60405180910390f35b3480156105aa57600080fd5b506105b361134f565b6040516105c091906137bc565b60405180910390f35b3480156105d557600080fd5b506105de611362565b6040516105eb91906139cc565b60405180910390f35b34801561060057600080fd5b5061061b60048036038101906106169190613c11565b611368565b60405161062891906139cc565b60405180910390f35b34801561063d57600080fd5b50610646611420565b005b34801561065457600080fd5b5061066f600480360381019061066a9190613c11565b6114a8565b60405161067c91906139cc565b60405180910390f35b34801561069157600080fd5b506106ac60048036038101906106a79190613a66565b6114c0565b005b3480156106ba57600080fd5b506106d560048036038101906106d09190613c11565b611559565b6040516106e29190613cfc565b60405180910390f35b3480156106f757600080fd5b50610700611607565b60405161070d9190613936565b60405180910390f35b34801561072257600080fd5b5061072b611631565b60405161073891906139cc565b60405180910390f35b34801561074d57600080fd5b50610768600480360381019061076391906138c8565b611636565b005b34801561077657600080fd5b5061077f6116bc565b60405161078c9190613936565b60405180910390f35b3480156107a157600080fd5b506107aa6116e2565b6040516107b79190613870565b60405180910390f35b3480156107cc57600080fd5b506107d5611774565b6040516107e29190613936565b60405180910390f35b3480156107f757600080fd5b50610812600480360381019061080d91906138c8565b61179a565b005b34801561082057600080fd5b506108296118b8565b60405161083691906139cc565b60405180910390f35b34801561084b57600080fd5b5061086660048036038101906108619190613d1e565b6118be565b005b34801561087457600080fd5b5061087d6118d4565b60405161088a91906139cc565b60405180910390f35b34801561089f57600080fd5b506108ba60048036038101906108b59190613dff565b6118da565b005b3480156108c857600080fd5b506108e360048036038101906108de9190613f4a565b61193c565b005b3480156108f157600080fd5b5061090c60048036038101906109079190613a66565b611acf565b005b610928600480360381019061092391906138c8565b611b68565b005b34801561093657600080fd5b50610951600480360381019061094c91906138c8565b611cea565b60405161095e9190613870565b60405180910390f35b34801561097357600080fd5b5061097c611d91565b6040516109899190613870565b60405180910390f35b34801561099e57600080fd5b506109b960048036038101906109b49190613f93565b611e1f565b6040516109c691906137bc565b60405180910390f35b3480156109db57600080fd5b506109f660048036038101906109f19190614096565b611eb3565b005b348015610a0457600080fd5b50610a1f6004803603810190610a1a9190613c11565b611fcb565b005b610a3b6004803603810190610a3691906138c8565b6120c3565b005b610a576004803603810190610a5291906138c8565b612245565b005b348015610a6557600080fd5b50610a6e61241a565b604051610a7b91906139cc565b60405180910390f35b60007f780e9d63000000000000000000000000000000000000000000000000000000007bffffffffffffffffffffffffffffffffffffffffffffffffffffffff1916827bffffffffffffffffffffffffffffffffffffffffffffffffffffffff19161480610af75750610af682612420565b5b9050919050565b600a60149054906101000a900460ff1681565b606060008054610b209061413d565b80601f0160208091040260200160405190810160405280929190818152602001828054610b4c9061413d565b8015610b995780601f10610b6e57610100808354040283529160200191610b99565b820191906000526020600020905b815481529060010190602001808311610b7c57829003601f168201915b5050505050905090565b6000610bae82612502565b610bed576040517f08c379a0000000000000000000000000000000000000000000000000000000008152600401610be4906141e1565b60405180910390fd5b6004600083815260200190815260200160002060009054906101000a900473ffffffffffffffffffffffffffffffffffffffff169050919050565b6000610c338261129d565b90508073ffffffffffffffffffffffffffffffffffffffff168373ffffffffffffffffffffffffffffffffffffffff161415610ca4576040517f08c379a0000000000000000000000000000000000000000000000000000000008152600401610c9b90614273565b60405180910390fd5b8073ffffffffffffffffffffffffffffffffffffffff16610cc361256e565b73ffffffffffffffffffffffffffffffffffffffff161480610cf25750610cf181610cec61256e565b611e1f565b5b610d31576040517f08c379a0000000000000000000000000000000000000000000000000000000008152600401610d2890614305565b60405180910390fd5b610d3b8383612576565b505050565b600f60009054906101000a900473ffffffffffffffffffffffffffffffffffffffff1681565b6000600880549050905090565b610d84610d7e61256e565b8261262f565b610dc3576040517f08c379a0000000000000000000000000000000000000000000000000000000008152600401610dba90614397565b60405180910390fd5b610dce83838361270d565b505050565b6000610dde83611368565b8210610e1f576040517f08c379a0000000000000000000000000000000000000000000000000000000008152600401610e1690614429565b60405180910390fd5b600660008473ffffffffffffffffffffffffffffffffffffffff1673ffffffffffffffffffffffffffffffffffffffff168152602001908152602001600020600083815260200190815260200160002054905092915050565b61271081565b610e8661256e565b73ffffffffffffffffffffffffffffffffffffffff16610ea4611607565b73ffffffffffffffffffffffffffffffffffffffff1614610efa576040517f08c379a0000000000000000000000000000000000000000000000000000000008152600401610ef190614495565b60405180910390fd5b80600a60156101000a81548160ff02191690831515021790555050565b610f32838383604051806020016040528060008152506118da565b505050565b6000610f41610d66565b90506000601260003373ffffffffffffffffffffffffffffffffffffffff1673ffffffffffffffffffffffffffffffffffffffff168152602001908152602001600020549050600a60149054906101000a900460ff16610fd6576040517f08c379a0000000000000000000000000000000000000000000000000000000008152600401610fcd90614501565b60405180910390fd5b60008111611019576040517f08c379a000000000000000000000000000000000000000000000000000000000815260040161101090614593565b60405180910390fd5b8083111561105c576040517f08c379a0000000000000000000000000000000000000000000000000000000008152600401611053906145ff565b60405180910390fd5b612710838361106b919061464e565b11156110ac576040517f08c379a00000000000000000000000000000000000000000000000000000000081526004016110a3906146f0565b60405180910390fd5b82600d546110ba9190614710565b34146110fb576040517f08c379a00000000000000000000000000000000000000000000000000000000081526004016110f2906147b6565b60405180910390fd5b828161110791906147d6565b601260003373ffffffffffffffffffffffffffffffffffffffff1673ffffffffffffffffffffffffffffffffffffffff1681526020019081526020016000208190555060005b8381101561117d5761116a338285611165919061464e565b612969565b80806111759061480a565b91505061114d565b50505050565b600061118d610d66565b82106111ce576040517f08c379a00000000000000000000000000000000000000000000000000000000081526004016111c5906148c5565b60405180910390fd5b600882815481106111e2576111e16148e5565b5b90600052602060002001549050919050565b600a60159054906101000a900460ff1681565b61120f61256e565b73ffffffffffffffffffffffffffffffffffffffff1661122d611607565b73ffffffffffffffffffffffffffffffffffffffff1614611283576040517f08c379a000000000000000000000000000000000000000000000000000000000815260040161127a90614495565b60405180910390fd5b80600e9080519060200190611299929190613665565b5050565b6000806002600084815260200190815260200160002060009054906101000a900473ffffffffffffffffffffffffffffffffffffffff169050600073ffffffffffffffffffffffffffffffffffffffff168173ffffffffffffffffffffffffffffffffffffffff161415611346576040517f08c379a000000000000000000000000000000000000000000000000000000000815260040161133d90614986565b60405180910390fd5b80915050919050565b600a60169054906101000a900460ff1681565b6101f481565b60008073ffffffffffffffffffffffffffffffffffffffff168273ffffffffffffffffffffffffffffffffffffffff1614156113d9576040517f08c379a00000000000000000000000000000000000000000000000000000000081526004016113d090614a18565b60405180910390fd5b600360008373ffffffffffffffffffffffffffffffffffffffff1673ffffffffffffffffffffffffffffffffffffffff168152602001908152602001600020549050919050565b61142861256e565b73ffffffffffffffffffffffffffffffffffffffff16611446611607565b73ffffffffffffffffffffffffffffffffffffffff161461149c576040517f08c379a000000000000000000000000000000000000000000000000000000000815260040161149390614495565b60405180910390fd5b6114a66000612987565b565b60126020528060005260406000206000915090505481565b6114c861256e565b73ffffffffffffffffffffffffffffffffffffffff166114e6611607565b73ffffffffffffffffffffffffffffffffffffffff161461153c576040517f08c379a000000000000000000000000000000000000000000000000000000000815260040161153390614495565b60405180910390fd5b80600a60166101000a81548160ff02191690831515021790555050565b6060600061156683611368565b905060008167ffffffffffffffff81111561158457611583613a9d565b5b6040519080825280602002602001820160405280156115b25781602001602082028036833780820191505090505b50905060005b828110156115fc576115ca8582610dd3565b8282815181106115dd576115dc6148e5565b5b60200260200101818152505080806115f49061480a565b9150506115b8565b508092505050919050565b6000600a60009054906101000a900473ffffffffffffffffffffffffffffffffffffffff16905090565b601481565b61163e61256e565b73ffffffffffffffffffffffffffffffffffffffff1661165c611607565b73ffffffffffffffffffffffffffffffffffffffff16146116b2576040517f08c379a00000000000000000000000000000000000000000000000000000000081526004016116a990614495565b60405180910390fd5b80600d8190555050565b601160009054906101000a900473ffffffffffffffffffffffffffffffffffffffff1681565b6060600180546116f19061413d565b80601f016020809104026020016040519081016040528092919081815260200182805461171d9061413d565b801561176a5780601f1061173f5761010080835404028352916020019161176a565b820191906000526020600020905b81548152906001019060200180831161174d57829003601f168201915b5050505050905090565b601060009054906101000a900473ffffffffffffffffffffffffffffffffffffffff1681565b6117a261256e565b73ffffffffffffffffffffffffffffffffffffffff166117c0611607565b73ffffffffffffffffffffffffffffffffffffffff1614611816576040517f08c379a000000000000000000000000000000000000000000000000000000000815260040161180d90614495565b60405180910390fd5b600b5481111561185b576040517f08c379a000000000000000000000000000000000000000000000000000000000815260040161185290614aaa565b60405180910390fd5b80600b600082825461186d91906147d6565b92505081905550600061187e610d66565b905060005b828110156118b3576118a033828461189b919061464e565b612969565b80806118ab9061480a565b915050611883565b505050565b600d5481565b6118d06118c961256e565b8383612a4d565b5050565b600c5481565b6118eb6118e561256e565b8361262f565b61192a576040517f08c379a000000000000000000000000000000000000000000000000000000000815260040161192190614397565b60405180910390fd5b61193684848484612bba565b50505050565b61194461256e565b73ffffffffffffffffffffffffffffffffffffffff16611962611607565b73ffffffffffffffffffffffffffffffffffffffff16146119b8576040517f08c379a00000000000000000000000000000000000000000000000000000000081526004016119af90614495565b60405180910390fd5b806000815181106119cc576119cb6148e5565b5b6020026020010151600f60006101000a81548173ffffffffffffffffffffffffffffffffffffffff021916908373ffffffffffffffffffffffffffffffffffffffff16021790555080600181518110611a2857611a276148e5565b5b6020026020010151601060006101000a81548173ffffffffffffffffffffffffffffffffffffffff021916908373ffffffffffffffffffffffffffffffffffffffff16021790555080600281518110611a8457611a836148e5565b5b6020026020010151601160006101000a81548173ffffffffffffffffffffffffffffffffffffffff021916908373ffffffffffffffffffffffffffffffffffffffff16021790555050565b611ad761256e565b73ffffffffffffffffffffffffffffffffffffffff16611af5611607565b73ffffffffffffffffffffffffffffffffffffffff1614611b4b576040517f08c379a0000000000000000000000000000000000000000000000000000000008152600401611b4290614495565b60405180910390fd5b80600a60146101000a81548160ff02191690831515021790555050565b6000611b72610d66565b9050600a60169054906101000a900460ff16611bc3576040517f08c379a0000000000000000000000000000000000000000000000000000000008152600401611bba90614b16565b60405180910390fd5b600082118015611bd4575060148211155b611c13576040517f08c379a0000000000000000000000000000000000000000000000000000000008152600401611c0a90614ba8565b60405180910390fd5b6127108282611c22919061464e565b1115611c63576040517f08c379a0000000000000000000000000000000000000000000000000000000008152600401611c5a906146f0565b60405180910390fd5b81600d54611c719190614710565b3414611cb2576040517f08c379a0000000000000000000000000000000000000000000000000000000008152600401611ca9906147b6565b60405180910390fd5b60005b82811015611ce557611cd2338284611ccd919061464e565b612969565b8080611cdd9061480a565b915050611cb5565b505050565b6060611cf582612502565b611d34576040517f08c379a0000000000000000000000000000000000000000000000000000000008152600401611d2b90614c3a565b60405180910390fd5b6000611d3e612c16565b90506000815111611d5e5760405180602001604052806000815250611d89565b80611d6884612ca8565b604051602001611d79929190614c96565b6040516020818303038152906040525b915050919050565b600e8054611d9e9061413d565b80601f0160208091040260200160405190810160405280929190818152602001828054611dca9061413d565b8015611e175780601f10611dec57610100808354040283529160200191611e17565b820191906000526020600020905b815481529060010190602001808311611dfa57829003601f168201915b505050505081565b6000600560008473ffffffffffffffffffffffffffffffffffffffff1673ffffffffffffffffffffffffffffffffffffffff16815260200190815260200160002060008373ffffffffffffffffffffffffffffffffffffffff1673ffffffffffffffffffffffffffffffffffffffff16815260200190815260200160002060009054906101000a900460ff16905092915050565b611ebb61256e565b73ffffffffffffffffffffffffffffffffffffffff16611ed9611607565b73ffffffffffffffffffffffffffffffffffffffff1614611f2f576040517f08c379a0000000000000000000000000000000000000000000000000000000008152600401611f2690614495565b60405180910390fd5b60005b8251811015611fc657818181518110611f4e57611f4d6148e5565b5b602002602001015160126000858481518110611f6d57611f6c6148e5565b5b602002602001015173ffffffffffffffffffffffffffffffffffffffff1673ffffffffffffffffffffffffffffffffffffffff168152602001908152602001600020819055508080611fbe9061480a565b915050611f32565b505050565b611fd361256e565b73ffffffffffffffffffffffffffffffffffffffff16611ff1611607565b73ffffffffffffffffffffffffffffffffffffffff1614612047576040517f08c379a000000000000000000000000000000000000000000000000000000000815260040161203e90614495565b60405180910390fd5b600073ffffffffffffffffffffffffffffffffffffffff168173ffffffffffffffffffffffffffffffffffffffff1614156120b7576040517f08c379a00000000000000000000000000000000000000000000000000000000081526004016120ae90614d2c565b60405180910390fd5b6120c081612987565b50565b60006120cd610d66565b9050600a60159054906101000a900460ff1661211e576040517f08c379a000000000000000000000000000000000000000000000000000000000815260040161211590614b16565b60405180910390fd5b60008211801561212f575060148211155b61216e576040517f08c379a000000000000000000000000000000000000000000000000000000000815260040161216590614dbe565b60405180910390fd5b6101f4828261217d919061464e565b11156121be576040517f08c379a00000000000000000000000000000000000000000000000000000000081526004016121b5906146f0565b60405180910390fd5b81600d546121cc9190614710565b341461220d576040517f08c379a0000000000000000000000000000000000000000000000000000000008152600401612204906147b6565b60405180910390fd5b60005b828110156122405761222d338284612228919061464e565b612969565b80806122389061480a565b915050612210565b505050565b61224d61256e565b73ffffffffffffffffffffffffffffffffffffffff1661226b611607565b73ffffffffffffffffffffffffffffffffffffffff16146122c1576040517f08c379a00000000000000000000000000000000000000000000000000000000081526004016122b890614495565b60405180910390fd5b60006064826122d09190614e0d565b9050600f60009054906101000a900473ffffffffffffffffffffffffffffffffffffffff1673ffffffffffffffffffffffffffffffffffffffff166108fc60288361231b9190614710565b9081150290604051600060405180830381858888f1935050505061233e57600080fd5b601060009054906101000a900473ffffffffffffffffffffffffffffffffffffffff1673ffffffffffffffffffffffffffffffffffffffff166108fc601e836123879190614710565b9081150290604051600060405180830381858888f193505050506123aa57600080fd5b601160009054906101000a900473ffffffffffffffffffffffffffffffffffffffff1673ffffffffffffffffffffffffffffffffffffffff166108fc601e836123f39190614710565b9081150290604051600060405180830381858888f1935050505061241657600080fd5b5050565b600b5481565b60007f80ac58cd000000000000000000000000000000000000000000000000000000007bffffffffffffffffffffffffffffffffffffffffffffffffffffffff1916827bffffffffffffffffffffffffffffffffffffffffffffffffffffffff191614806124eb57507f5b5e139f000000000000000000000000000000000000000000000000000000007bffffffffffffffffffffffffffffffffffffffffffffffffffffffff1916827bffffffffffffffffffffffffffffffffffffffffffffffffffffffff1916145b806124fb57506124fa82612e09565b5b9050919050565b60008073ffffffffffffffffffffffffffffffffffffffff166002600084815260200190815260200160002060009054906101000a900473ffffffffffffffffffffffffffffffffffffffff1673ffffffffffffffffffffffffffffffffffffffff1614159050919050565b600033905090565b816004600083815260200190815260200160002060006101000a81548173ffffffffffffffffffffffffffffffffffffffff021916908373ffffffffffffffffffffffffffffffffffffffff160217905550808273ffffffffffffffffffffffffffffffffffffffff166125e98361129d565b73ffffffffffffffffffffffffffffffffffffffff167f8c5be1e5ebec7d5bd14f71427d1e84f3dd0314c0f7b2291e5b200ac8c7c3b92560405160405180910390a45050565b600061263a82612502565b612679576040517f08c379a000000000000000000000000000000000000000000000000000000000815260040161267090614eb0565b60405180910390fd5b60006126848361129d565b90508073ffffffffffffffffffffffffffffffffffffffff168473ffffffffffffffffffffffffffffffffffffffff1614806126f357508373ffffffffffffffffffffffffffffffffffffffff166126db84610ba3565b73ffffffffffffffffffffffffffffffffffffffff16145b8061270457506127038185611e1f565b5b91505092915050565b8273ffffffffffffffffffffffffffffffffffffffff1661272d8261129d565b73ffffffffffffffffffffffffffffffffffffffff1614612783576040517f08c379a000000000000000000000000000000000000000000000000000000000815260040161277a90614f42565b60405180910390fd5b600073ffffffffffffffffffffffffffffffffffffffff168273ffffffffffffffffffffffffffffffffffffffff1614156127f3576040517f08c379a00000000000000000000000000000000000000000000000000000000081526004016127ea90614fd4565b60405180910390fd5b6127fe838383612e73565b612809600082612576565b6001600360008573ffffffffffffffffffffffffffffffffffffffff1673ffffffffffffffffffffffffffffffffffffffff168152602001908152602001600020600082825461285991906147d6565b925050819055506001600360008473ffffffffffffffffffffffffffffffffffffffff1673ffffffffffffffffffffffffffffffffffffffff16815260200190815260200160002060008282546128b0919061464e565b92505081905550816002600083815260200190815260200160002060006101000a81548173ffffffffffffffffffffffffffffffffffffffff021916908373ffffffffffffffffffffffffffffffffffffffff160217905550808273ffffffffffffffffffffffffffffffffffffffff168473ffffffffffffffffffffffffffffffffffffffff167fddf252ad1be2c89b69c2b068fc378daa952ba7f163c4a11628f55a4df523b3ef60405160405180910390a4505050565b612983828260405180602001604052806000815250612f87565b5050565b6000600a60009054906101000a900473ffffffffffffffffffffffffffffffffffffffff16905081600a60006101000a81548173ffffffffffffffffffffffffffffffffffffffff021916908373ffffffffffffffffffffffffffffffffffffffff1602179055508173ffffffffffffffffffffffffffffffffffffffff168173ffffffffffffffffffffffffffffffffffffffff167f8be0079c531659141344cd1fd0a4f28419497f9722a3daafe3b4186f6b6457e060405160405180910390a35050565b8173ffffffffffffffffffffffffffffffffffffffff168373ffffffffffffffffffffffffffffffffffffffff161415612abc576040517f08c379a0000000000000000000000000000000000000000000000000000000008152600401612ab390615040565b60405180910390fd5b80600560008573ffffffffffffffffffffffffffffffffffffffff1673ffffffffffffffffffffffffffffffffffffffff16815260200190815260200160002060008473ffffffffffffffffffffffffffffffffffffffff1673ffffffffffffffffffffffffffffffffffffffff16815260200190815260200160002060006101000a81548160ff0219169083151502179055508173ffffffffffffffffffffffffffffffffffffffff168373ffffffffffffffffffffffffffffffffffffffff167f17307eab39ab6107e8899845ad3d59bd9653f200f220920489ca2b5937696c3183604051612bad91906137bc565b60405180910390a3505050565b612bc584848461270d565b612bd184848484612fe2565b612c10576040517f08c379a0000000000000000000000000000000000000000000000000000000008152600401612c07906150d2565b60405180910390fd5b50505050565b6060600e8054612c259061413d565b80601f0160208091040260200160405190810160405280929190818152602001828054612c519061413d565b8015612c9e5780601f10612c7357610100808354040283529160200191612c9e565b820191906000526020600020905b815481529060010190602001808311612c8157829003601f168201915b5050505050905090565b60606000821415612cf0576040518060400160405280600181526020017f30000000000000000000000000000000000000000000000000000000000000008152509050612e04565b600082905060005b60008214612d22578080612d0b9061480a565b915050600a82612d1b9190614e0d565b9150612cf8565b60008167ffffffffffffffff811115612d3e57612d3d613a9d565b5b6040519080825280601f01601f191660200182016040528015612d705781602001600182028036833780820191505090505b5090505b60008514612dfd57600182612d8991906147d6565b9150600a85612d9891906150f2565b6030612da4919061464e565b60f81b818381518110612dba57612db96148e5565b5b60200101907effffffffffffffffffffffffffffffffffffffffffffffffffffffffffffff1916908160001a905350600a85612df69190614e0d565b9450612d74565b8093505050505b919050565b60007f01ffc9a7000000000000000000000000000000000000000000000000000000007bffffffffffffffffffffffffffffffffffffffffffffffffffffffff1916827bffffffffffffffffffffffffffffffffffffffffffffffffffffffff1916149050919050565b612e7e838383613179565b600073ffffffffffffffffffffffffffffffffffffffff168373ffffffffffffffffffffffffffffffffffffffff161415612ec157612ebc8161317e565b612f00565b8173ffffffffffffffffffffffffffffffffffffffff168373ffffffffffffffffffffffffffffffffffffffff1614612eff57612efe83826131c7565b5b5b600073ffffffffffffffffffffffffffffffffffffffff168273ffffffffffffffffffffffffffffffffffffffff161415612f4357612f3e81613334565b612f82565b8273ffffffffffffffffffffffffffffffffffffffff168273ffffffffffffffffffffffffffffffffffffffff1614612f8157612f808282613405565b5b5b505050565b612f918383613484565b612f9e6000848484612fe2565b612fdd576040517f08c379a0000000000000000000000000000000000000000000000000000000008152600401612fd4906150d2565b60405180910390fd5b505050565b60006130038473ffffffffffffffffffffffffffffffffffffffff16613652565b1561316c578373ffffffffffffffffffffffffffffffffffffffff1663150b7a0261302c61256e565b8786866040518563ffffffff1660e01b815260040161304e9493929190615178565b602060405180830381600087803b15801561306857600080fd5b505af192505050801561309957506040513d601f19601f8201168201806040525081019061309691906151d9565b60015b61311c573d80600081146130c9576040519150601f19603f3d011682016040523d82523d6000602084013e6130ce565b606091505b50600081511415613114576040517f08c379a000000000000000000000000000000000000000000000000000000000815260040161310b906150d2565b60405180910390fd5b805181602001fd5b63150b7a0260e01b7bffffffffffffffffffffffffffffffffffffffffffffffffffffffff1916817bffffffffffffffffffffffffffffffffffffffffffffffffffffffff191614915050613171565b600190505b949350505050565b505050565b6008805490506009600083815260200190815260200160002081905550600881908060018154018082558091505060019003906000526020600020016000909190919091505550565b600060016131d484611368565b6131de91906147d6565b90506000600760008481526020019081526020016000205490508181146132c3576000600660008673ffffffffffffffffffffffffffffffffffffffff1673ffffffffffffffffffffffffffffffffffffffff168152602001908152602001600020600084815260200190815260200160002054905080600660008773ffffffffffffffffffffffffffffffffffffffff1673ffffffffffffffffffffffffffffffffffffffff168152602001908152602001600020600084815260200190815260200160002081905550816007600083815260200190815260200160002081905550505b6007600084815260200190815260200160002060009055600660008573ffffffffffffffffffffffffffffffffffffffff1673ffffffffffffffffffffffffffffffffffffffff16815260200190815260200160002060008381526020019081526020016000206000905550505050565b6000600160088054905061334891906147d6565b9050600060096000848152602001908152602001600020549050600060088381548110613378576133776148e5565b5b90600052602060002001549050806008838154811061339a576133996148e5565b5b9060005260206000200181905550816009600083815260200190815260200160002081905550600960008581526020019081526020016000206000905560088054806133e9576133e8615206565b5b6001900381819060005260206000200160009055905550505050565b600061341083611368565b905081600660008573ffffffffffffffffffffffffffffffffffffffff1673ffffffffffffffffffffffffffffffffffffffff168152602001908152602001600020600083815260200190815260200160002081905550806007600084815260200190815260200160002081905550505050565b600073ffffffffffffffffffffffffffffffffffffffff168273ffffffffffffffffffffffffffffffffffffffff1614156134f4576040517f08c379a00000000000000000000000000000000000000000000000000000000081526004016134eb90615281565b60405180910390fd5b6134fd81612502565b1561353d576040517f08c379a0000000000000000000000000000000000000000000000000000000008152600401613534906152ed565b60405180910390fd5b61354960008383612e73565b6001600360008473ffffffffffffffffffffffffffffffffffffffff1673ffffffffffffffffffffffffffffffffffffffff1681526020019081526020016000206000828254613599919061464e565b92505081905550816002600083815260200190815260200160002060006101000a81548173ffffffffffffffffffffffffffffffffffffffff021916908373ffffffffffffffffffffffffffffffffffffffff160217905550808273ffffffffffffffffffffffffffffffffffffffff16600073ffffffffffffffffffffffffffffffffffffffff167fddf252ad1be2c89b69c2b068fc378daa952ba7f163c4a11628f55a4df523b3ef60405160405180910390a45050565b600080823b905060008111915050919050565b8280546136719061413d565b90600052602060002090601f01602090048101928261369357600085556136da565b82601f106136ac57805160ff19168380011785556136da565b828001600101855582156136da579182015b828111156136d95782518255916020019190600101906136be565b5b5090506136e791906136eb565b5090565b5b808211156137045760008160009055506001016136ec565b5090565b6000604051905090565b600080fd5b600080fd5b60007fffffffff0000000000000000000000000000000000000000000000000000000082169050919050565b6137518161371c565b811461375c57600080fd5b50565b60008135905061376e81613748565b92915050565b60006020828403121561378a57613789613712565b5b60006137988482850161375f565b91505092915050565b60008115159050919050565b6137b6816137a1565b82525050565b60006020820190506137d160008301846137ad565b92915050565b600081519050919050565b600082825260208201905092915050565b60005b838110156138115780820151818401526020810190506137f6565b83811115613820576000848401525b50505050565b6000601f19601f8301169050919050565b6000613842826137d7565b61384c81856137e2565b935061385c8185602086016137f3565b61386581613826565b840191505092915050565b6000602082019050818103600083015261388a8184613837565b905092915050565b6000819050919050565b6138a581613892565b81146138b057600080fd5b50565b6000813590506138c28161389c565b92915050565b6000602082840312156138de576138dd613712565b5b60006138ec848285016138b3565b91505092915050565b600073ffffffffffffffffffffffffffffffffffffffff82169050919050565b6000613920826138f5565b9050919050565b61393081613915565b82525050565b600060208201905061394b6000830184613927565b92915050565b61395a81613915565b811461396557600080fd5b50565b60008135905061397781613951565b92915050565b6000806040838503121561399457613993613712565b5b60006139a285828601613968565b92505060206139b3858286016138b3565b9150509250929050565b6139c681613892565b82525050565b60006020820190506139e160008301846139bd565b92915050565b600080600060608486031215613a00576139ff613712565b5b6000613a0e86828701613968565b9350506020613a1f86828701613968565b9250506040613a30868287016138b3565b9150509250925092565b613a43816137a1565b8114613a4e57600080fd5b50565b600081359050613a6081613a3a565b92915050565b600060208284031215613a7c57613a7b613712565b5b6000613a8a84828501613a51565b91505092915050565b600080fd5b600080fd5b7f4e487b7100000000000000000000000000000000000000000000000000000000600052604160045260246000fd5b613ad582613826565b810181811067ffffffffffffffff82111715613af457613af3613a9d565b5b80604052505050565b6000613b07613708565b9050613b138282613acc565b919050565b600067ffffffffffffffff821115613b3357613b32613a9d565b5b613b3c82613826565b9050602081019050919050565b82818337600083830152505050565b6000613b6b613b6684613b18565b613afd565b905082815260208101848484011115613b8757613b86613a98565b5b613b92848285613b49565b509392505050565b600082601f830112613baf57613bae613a93565b5b8135613bbf848260208601613b58565b91505092915050565b600060208284031215613bde57613bdd613712565b5b600082013567ffffffffffffffff811115613bfc57613bfb613717565b5b613c0884828501613b9a565b91505092915050565b600060208284031215613c2757613c26613712565b5b6000613c3584828501613968565b91505092915050565b600081519050919050565b600082825260208201905092915050565b6000819050602082019050919050565b613c7381613892565b82525050565b6000613c858383613c6a565b60208301905092915050565b6000602082019050919050565b6000613ca982613c3e565b613cb38185613c49565b9350613cbe83613c5a565b8060005b83811015613cef578151613cd68882613c79565b9750613ce183613c91565b925050600181019050613cc2565b5085935050505092915050565b60006020820190508181036000830152613d168184613c9e565b905092915050565b60008060408385031215613d3557613d34613712565b5b6000613d4385828601613968565b9250506020613d5485828601613a51565b9150509250929050565b600067ffffffffffffffff821115613d7957613d78613a9d565b5b613d8282613826565b9050602081019050919050565b6000613da2613d9d84613d5e565b613afd565b905082815260208101848484011115613dbe57613dbd613a98565b5b613dc9848285613b49565b509392505050565b600082601f830112613de657613de5613a93565b5b8135613df6848260208601613d8f565b91505092915050565b60008060008060808587031215613e1957613e18613712565b5b6000613e2787828801613968565b9450506020613e3887828801613968565b9350506040613e49878288016138b3565b925050606085013567ffffffffffffffff811115613e6a57613e69613717565b5b613e7687828801613dd1565b91505092959194509250565b600067ffffffffffffffff821115613e9d57613e9c613a9d565b5b602082029050602081019050919050565b600080fd5b6000613ec6613ec184613e82565b613afd565b90508083825260208201905060208402830185811115613ee957613ee8613eae565b5b835b81811015613f125780613efe8882613968565b845260208401935050602081019050613eeb565b5050509392505050565b600082601f830112613f3157613f30613a93565b5b8135613f41848260208601613eb3565b91505092915050565b600060208284031215613f6057613f5f613712565b5b600082013567ffffffffffffffff811115613f7e57613f7d613717565b5b613f8a84828501613f1c565b91505092915050565b60008060408385031215613faa57613fa9613712565b5b6000613fb885828601613968565b9250506020613fc985828601613968565b9150509250929050565b600067ffffffffffffffff821115613fee57613fed613a9d565b5b602082029050602081019050919050565b600061401261400d84613fd3565b613afd565b9050808382526020820190506020840283018581111561403557614034613eae565b5b835b8181101561405e578061404a88826138b3565b845260208401935050602081019050614037565b5050509392505050565b600082601f83011261407d5761407c613a93565b5b813561408d848260208601613fff565b91505092915050565b600080604083850312156140ad576140ac613712565b5b600083013567ffffffffffffffff8111156140cb576140ca613717565b5b6140d785828601613f1c565b925050602083013567ffffffffffffffff8111156140f8576140f7613717565b5b61410485828601614068565b9150509250929050565b7f4e487b7100000000000000000000000000000000000000000000000000000000600052602260045260246000fd5b6000600282049050600182168061415557607f821691505b602082108114156141695761416861410e565b5b50919050565b7f4552433732313a20617070726f76656420717565727920666f72206e6f6e657860008201527f697374656e7420746f6b656e0000000000000000000000000000000000000000602082015250565b60006141cb602c836137e2565b91506141d68261416f565b604082019050919050565b600060208201905081810360008301526141fa816141be565b9050919050565b7f4552433732313a20617070726f76616c20746f2063757272656e74206f776e6560008201527f7200000000000000000000000000000000000000000000000000000000000000602082015250565b600061425d6021836137e2565b915061426882614201565b604082019050919050565b6000602082019050818103600083015261428c81614250565b9050919050565b7f4552433732313a20617070726f76652063616c6c6572206973206e6f74206f7760008201527f6e6572206e6f7220617070726f76656420666f7220616c6c0000000000000000602082015250565b60006142ef6038836137e2565b91506142fa82614293565b604082019050919050565b6000602082019050818103600083015261431e816142e2565b9050919050565b7f4552433732313a207472616e736665722063616c6c6572206973206e6f74206f60008201527f776e6572206e6f7220617070726f766564000000000000000000000000000000602082015250565b60006143816031836137e2565b915061438c82614325565b604082019050919050565b600060208201905081810360008301526143b081614374565b9050919050565b7f455243373231456e756d657261626c653a206f776e657220696e646578206f7560008201527f74206f6620626f756e6473000000000000000000000000000000000000000000602082015250565b6000614413602b836137e2565b915061441e826143b7565b604082019050919050565b6000602082019050818103600083015261444281614406565b9050919050565b7f4f776e61626c653a2063616c6c6572206973206e6f7420746865206f776e6572600082015250565b600061447f6020836137e2565b915061448a82614449565b602082019050919050565b600060208201905081810360008301526144ae81614472565b9050919050565b7f57686974656c6973742069736e27742061637469766500000000000000000000600082015250565b60006144eb6016836137e2565b91506144f6826144b5565b602082019050919050565b6000602082019050818103600083015261451a816144de565b9050919050565b7f4e6f20746f6b656e7320726573657276656420666f7220796f7572206164647260008201527f6573730000000000000000000000000000000000000000000000000000000000602082015250565b600061457d6023836137e2565b915061458882614521565b604082019050919050565b600060208201905081810360008301526145ac81614570565b9050919050565b7f43616e2774206d696e74206d6f7265207468616e207265736572766564000000600082015250565b60006145e9601d836137e2565b91506145f4826145b3565b602082019050919050565b60006020820190508181036000830152614618816145dc565b9050919050565b7f4e487b7100000000000000000000000000000000000000000000000000000000600052601160045260246000fd5b600061465982613892565b915061466483613892565b9250827fffffffffffffffffffffffffffffffffffffffffffffffffffffffffffffffff038211156146995761469861461f565b5b828201905092915050565b7f43616e2774206d696e74206d6f7265207468616e206d617820737570706c7900600082015250565b60006146da601f836137e2565b91506146e5826146a4565b602082019050919050565b60006020820190508181036000830152614709816146cd565b9050919050565b600061471b82613892565b915061472683613892565b9250817fffffffffffffffffffffffffffffffffffffffffffffffffffffffffffffffff048311821515161561475f5761475e61461f565b5b828202905092915050565b7f57726f6e6720616d6f756e74206f66204554482073656e740000000000000000600082015250565b60006147a06018836137e2565b91506147ab8261476a565b602082019050919050565b600060208201905081810360008301526147cf81614793565b9050919050565b60006147e182613892565b91506147ec83613892565b9250828210156147ff576147fe61461f565b5b828203905092915050565b600061481582613892565b91507fffffffffffffffffffffffffffffffffffffffffffffffffffffffffffffffff8214156148485761484761461f565b5b600182019050919050565b7f455243373231456e756d657261626c653a20676c6f62616c20696e646578206f60008201527f7574206f6620626f756e64730000000000000000000000000000000000000000602082015250565b60006148af602c836137e2565b91506148ba82614853565b604082019050919050565b600060208201905081810360008301526148de816148a2565b9050919050565b7f4e487b7100000000000000000000000000000000000000000000000000000000600052603260045260246000fd5b7f4552433732313a206f776e657220717565727920666f72206e6f6e657869737460008201527f656e7420746f6b656e0000000000000000000000000000000000000000000000602082015250565b60006149706029836137e2565b915061497b82614914565b604082019050919050565b6000602082019050818103600083015261499f81614963565b9050919050565b7f4552433732313a2062616c616e636520717565727920666f7220746865207a6560008201527f726f206164647265737300000000000000000000000000000000000000000000602082015250565b6000614a02602a836137e2565b9150614a0d826149a6565b604082019050919050565b60006020820190508181036000830152614a31816149f5565b9050919050565b7f43616e27742072657365727665206d6f7265207468616e2073657420616d6f7560008201527f6e74000000000000000000000000000000000000000000000000000000000000602082015250565b6000614a946022836137e2565b9150614a9f82614a38565b604082019050919050565b60006020820190508181036000830152614ac381614a87565b9050919050565b7f53616c652069736e277420616374697665000000000000000000000000000000600082015250565b6000614b006011836137e2565b9150614b0b82614aca565b602082019050919050565b60006020820190508181036000830152614b2f81614af3565b9050919050565b7f43616e206f6e6c79206d696e74206265747765656e203120616e64203130207460008201527f6f6b656e73206174206f6e636500000000000000000000000000000000000000602082015250565b6000614b92602d836137e2565b9150614b9d82614b36565b604082019050919050565b60006020820190508181036000830152614bc181614b85565b9050919050565b7f4552433732314d657461646174613a2055524920717565727920666f72206e6f60008201527f6e6578697374656e7420746f6b656e0000000000000000000000000000000000602082015250565b6000614c24602f836137e2565b9150614c2f82614bc8565b604082019050919050565b60006020820190508181036000830152614c5381614c17565b9050919050565b600081905092915050565b6000614c70826137d7565b614c7a8185614c5a565b9350614c8a8185602086016137f3565b80840191505092915050565b6000614ca28285614c65565b9150614cae8284614c65565b91508190509392505050565b7f4f776e61626c653a206e6577206f776e657220697320746865207a65726f206160008201527f6464726573730000000000000000000000000000000000000000000000000000602082015250565b6000614d166026836137e2565b9150614d2182614cba565b604082019050919050565b60006020820190508181036000830152614d4581614d09565b9050919050565b7f43616e206f6e6c79206d696e74206265747765656e203120616e64203230207460008201527f6f6b656e73206174206f6e636500000000000000000000000000000000000000602082015250565b6000614da8602d836137e2565b9150614db382614d4c565b604082019050919050565b60006020820190508181036000830152614dd781614d9b565b9050919050565b7f4e487b7100000000000000000000000000000000000000000000000000000000600052601260045260246000fd5b6000614e1882613892565b9150614e2383613892565b925082614e3357614e32614dde565b5b828204905092915050565b7f4552433732313a206f70657261746f7220717565727920666f72206e6f6e657860008201527f697374656e7420746f6b656e0000000000000000000000000000000000000000602082015250565b6000614e9a602c836137e2565b9150614ea582614e3e565b604082019050919050565b60006020820190508181036000830152614ec981614e8d565b9050919050565b7f4552433732313a207472616e73666572206f6620746f6b656e2074686174206960008201527f73206e6f74206f776e0000000000000000000000000000000000000000000000602082015250565b6000614f2c6029836137e2565b9150614f3782614ed0565b604082019050919050565b60006020820190508181036000830152614f5b81614f1f565b9050919050565b7f4552433732313a207472616e7366657220746f20746865207a65726f2061646460008201527f7265737300000000000000000000000000000000000000000000000000000000602082015250565b6000614fbe6024836137e2565b9150614fc982614f62565b604082019050919050565b60006020820190508181036000830152614fed81614fb1565b9050919050565b7f4552433732313a20617070726f766520746f2063616c6c657200000000000000600082015250565b600061502a6019836137e2565b915061503582614ff4565b602082019050919050565b600060208201905081810360008301526150598161501d565b9050919050565b7f4552433732313a207472616e7366657220746f206e6f6e20455243373231526560008201527f63656976657220696d706c656d656e7465720000000000000000000000000000602082015250565b60006150bc6032836137e2565b91506150c782615060565b604082019050919050565b600060208201905081810360008301526150eb816150af565b9050919050565b60006150fd82613892565b915061510883613892565b92508261511857615117614dde565b5b828206905092915050565b600081519050919050565b600082825260208201905092915050565b600061514a82615123565b615154818561512e565b93506151648185602086016137f3565b61516d81613826565b840191505092915050565b600060808201905061518d6000830187613927565b61519a6020830186613927565b6151a760408301856139bd565b81810360608301526151b9818461513f565b905095945050505050565b6000815190506151d381613748565b92915050565b6000602082840312156151ef576151ee613712565b5b60006151fd848285016151c4565b91505092915050565b7f4e487b7100000000000000000000000000000000000000000000000000000000600052603160045260246000fd5b7f4552433732313a206d696e7420746f20746865207a65726f2061646472657373600082015250565b600061526b6020836137e2565b915061527682615235565b602082019050919050565b6000602082019050818103600083015261529a8161525e565b9050919050565b7f4552433732313a20746f6b656e20616c7265616479206d696e74656400000000600082015250565b60006152d7601c836137e2565b91506152e2826152a1565b602082019050919050565b60006020820190508181036000830152615306816152ca565b905091905056fea2646970667358221220e7957b2bc258fff8e0b897eb240c9cea44836b99678a5ef3e0d030c74bcc9b1564736f6c63430008090033",
  "immutableReferences": {},
  "source": "// SPDX-License-Identifier: MIT\npragma solidity 0.8.9;\n\nimport '@openzeppelin/contracts/token/ERC721/extensions/ERC721Enumerable.sol';\nimport '@openzeppelin/contracts/access/Ownable.sol';\n\ncontract FunkyCrocs is ERC721Enumerable, Ownable {  \n    using Address for address;\n    \n    // Starting and stopping sale, presale and whitelist\n    bool public whitelistActive = false;\n    bool public presaleActive = false;\n    bool public saleActive = false;\n\n    // Reserved for the team, customs, giveaways, collabs and so on.\n    uint256 public reserved = 150;\n\n    // Price of each token\n    uint256 public initial_price = 0.04 ether;\n    uint256 public price;\n\n    // Maximum limit of tokens that can ever exist\n    uint256 public constant MAX_SUPPLY = 10000;\n    uint256 public constant MAX_PRESALE_SUPPLY = 500;\n    uint256 public constant MAX_MINT_PER_TX = 20;\n\n    // The base link that leads to the image / video of the token\n    string public baseTokenURI = \"http://45.55.35.143/\";\n\n    // Team addresses for withdrawals\n    address public a1;\n    address public a2;\n    address public a3;\n\n    // List of addresses that have a number of reserved tokens for whitelist\n    mapping (address => uint256) public whitelistReserved;\n\n    constructor () ERC721 (\"Funky Crocs\", \"FNK\") {\n        price = initial_price;\n    }\n\n    // Override so the openzeppelin tokenURI() method will use this method to create the full tokenURI instead\n    function _baseURI() internal view virtual override returns (string memory) {\n        return baseTokenURI;\n    }\n\n    // See which address owns which tokens\n    function tokensOfOwner(address addr) public view returns(uint256[] memory) {\n        uint256 tokenCount = balanceOf(addr);\n        uint256[] memory tokensId = new uint256[](tokenCount);\n        for(uint256 i; i < tokenCount; i++){\n            tokensId[i] = tokenOfOwnerByIndex(addr, i);\n        }\n        return tokensId;\n    }\n\n    // Exclusive whitelist minting\n    function mintWhitelist(uint256 _amount) public payable {\n        uint256 supply = totalSupply();\n        uint256 reservedAmt = whitelistReserved[msg.sender];\n        require( whitelistActive,                   \"Whitelist isn't active\" );\n        require( reservedAmt > 0,                   \"No tokens reserved for your address\" );\n        require( _amount <= reservedAmt,            \"Can't mint more than reserved\" );\n        require( supply + _amount <= MAX_SUPPLY,    \"Can't mint more than max supply\" );\n        require( msg.value == price * _amount,      \"Wrong amount of ETH sent\" );\n        whitelistReserved[msg.sender] = reservedAmt - _amount;\n        for(uint256 i; i < _amount; i++){\n            _safeMint( msg.sender, supply + i );\n        }\n    }\n\n    // Presale minting\n    function mintPresale(uint256 _amount) public payable {\n        uint256 supply = totalSupply();\n        require( presaleActive,                             \"Sale isn't active\" );\n        require( _amount > 0 && _amount <= MAX_MINT_PER_TX, \"Can only mint between 1 and 20 tokens at once\" );\n        require( supply + _amount <= MAX_PRESALE_SUPPLY,    \"Can't mint more than max supply\" );\n        require( msg.value == price * _amount,              \"Wrong amount of ETH sent\" );\n        for(uint256 i; i < _amount; i++){\n            _safeMint( msg.sender, supply + i );\n        }\n    }\n\n    // Standard mint function\n    function mintToken(uint256 _amount) public payable {\n        uint256 supply = totalSupply();\n        require( saleActive,                                \"Sale isn't active\" );\n        require( _amount > 0 && _amount <= MAX_MINT_PER_TX, \"Can only mint between 1 and 10 tokens at once\" );\n        require( supply + _amount <= MAX_SUPPLY,            \"Can't mint more than max supply\" );\n        require( msg.value == price * _amount,              \"Wrong amount of ETH sent\" );\n        for(uint256 i; i < _amount; i++){\n            _safeMint( msg.sender, supply + i );\n        }\n    }\n\n    // Admin minting function to reserve tokens for the team, collabs, customs and giveaways\n    function mintReserved(uint256 _amount) public onlyOwner {\n        // Limited to a publicly set amount\n        require( _amount <= reserved, \"Can't reserve more than set amount\" );\n        reserved -= _amount;\n        uint256 supply = totalSupply();\n        for(uint256 i; i < _amount; i++){\n            _safeMint( msg.sender, supply + i );\n        }\n    }\n    \n    // Edit reserved whitelist spots\n    function editWhitelistReserved(address[] memory _a, uint256[] memory _amount) public onlyOwner {\n        for(uint256 i; i < _a.length; i++){\n            whitelistReserved[_a[i]] = _amount[i];\n        }\n    }\n\n    // Start and stop whitelist\n    function setWhitelistActive(bool val) public onlyOwner {\n        whitelistActive = val;\n    }\n\n    // Start and stop presale\n    function setPresaleActive(bool val) public onlyOwner {\n        presaleActive = val;\n    }\n\n    // Start and stop sale\n    function setSaleActive(bool val) public onlyOwner {\n        saleActive = val;\n    }\n\n    // Set new baseURI\n    function setBaseURI(string memory baseURI) public onlyOwner {\n        baseTokenURI = baseURI;\n    }\n\n    // Set a different price in case ETH changes drastically\n    function setPrice(uint256 newPrice) public onlyOwner {\n        price = newPrice;\n    }\n\n    // Set team addresses\n    function setAddresses(address[] memory _a) public onlyOwner {\n        a1 = _a[0];\n        a2 = _a[1];\n        a3 = _a[2];\n    }\n\n    // Withdraw funds from contract for the team\n    function withdrawTeam(uint256 amount) public payable onlyOwner {\n        uint256 percent = amount / 100;\n        require(payable(a1).send(percent * 40));\n        require(payable(a2).send(percent * 30));\n        require(payable(a3).send(percent * 30));\n    }\n}",
  "sourcePath": "/home/turupawn/Demo/MiColeccionNFTs/contracts/FunkyCrocs.sol",
  "compiler": {
    "name": "solc",
    "version": "0.8.9+commit.e5eed63a.Emscripten.clang"
  },
  "schemaVersion": "3.4.3",
  "updatedAt": "2021-11-30T09:51:19.633Z",
  "networkType": "ethereum",
  "devdoc": {
    "kind": "dev",
    "methods": {
      "approve(address,uint256)": {
        "details": "See {IERC721-approve}."
      },
      "balanceOf(address)": {
        "details": "See {IERC721-balanceOf}."
      },
      "getApproved(uint256)": {
        "details": "See {IERC721-getApproved}."
      },
      "isApprovedForAll(address,address)": {
        "details": "See {IERC721-isApprovedForAll}."
      },
      "name()": {
        "details": "See {IERC721Metadata-name}."
      },
      "owner()": {
        "details": "Returns the address of the current owner."
      },
      "ownerOf(uint256)": {
        "details": "See {IERC721-ownerOf}."
      },
      "renounceOwnership()": {
        "details": "Leaves the contract without owner. It will not be possible to call `onlyOwner` functions anymore. Can only be called by the current owner. NOTE: Renouncing ownership will leave the contract without an owner, thereby removing any functionality that is only available to the owner."
      },
      "safeTransferFrom(address,address,uint256)": {
        "details": "See {IERC721-safeTransferFrom}."
      },
      "safeTransferFrom(address,address,uint256,bytes)": {
        "details": "See {IERC721-safeTransferFrom}."
      },
      "setApprovalForAll(address,bool)": {
        "details": "See {IERC721-setApprovalForAll}."
      },
      "supportsInterface(bytes4)": {
        "details": "See {IERC165-supportsInterface}."
      },
      "symbol()": {
        "details": "See {IERC721Metadata-symbol}."
      },
      "tokenByIndex(uint256)": {
        "details": "See {IERC721Enumerable-tokenByIndex}."
      },
      "tokenOfOwnerByIndex(address,uint256)": {
        "details": "See {IERC721Enumerable-tokenOfOwnerByIndex}."
      },
      "tokenURI(uint256)": {
        "details": "See {IERC721Metadata-tokenURI}."
      },
      "totalSupply()": {
        "details": "See {IERC721Enumerable-totalSupply}."
      },
      "transferFrom(address,address,uint256)": {
        "details": "See {IERC721-transferFrom}."
      },
      "transferOwnership(address)": {
        "details": "Transfers ownership of the contract to a new account (`newOwner`). Can only be called by the current owner."
      }
    },
    "version": 1
  },
  "userdoc": {
    "kind": "user",
    "methods": {},
    "version": 1
  }
}